{"Contracts/Escrow.sol":{"Escrow":{"abi":[{"inputs":[{"internalType":"address","name":"_seller","type":"address"},{"internalType":"address","name":"_arbiter","type":"address"}],"stateMutability":"nonpayable","type":"constructor"},{"inputs":[],"name":"AlreadyFunded","type":"error"},{"inputs":[],"name":"InvalidState","type":"error"},{"inputs":[],"name":"NotArbiter","type":"error"},{"inputs":[],"name":"NotBuyer","type":"error"},{"inputs":[],"name":"NotSeller","type":"error"},{"inputs":[],"name":"TransferFailed","type":"error"},{"inputs":[],"name":"ZeroAmount","type":"error"},{"anonymous":false,"inputs":[{"indexed":true,"internalType":"address","name":"seller","type":"address"}],"name":"Delivered","type":"event"},{"anonymous":false,"inputs":[{"indexed":true,"internalType":"address","name":"buyer","type":"address"},{"indexed":false,"internalType":"uint256","name":"amount","type":"uint256"}],"name":"Deposited","type":"event"},{"anonymous":false,"inputs":[{"indexed":true,"internalType":"address","name":"raisedBy","type":"address"}],"name":"Disputed","type":"event"},{"anonymous":false,"inputs":[{"indexed":true,"internalType":"address","name":"seller","type":"address"},{"indexed":false,"internalType":"uint256","name":"amount","type":"uint256"}],"name":"Released","type":"event"},{"anonymous":false,"inputs":[{"indexed":true,"internalType":"address","name":"arbiter","type":"address"},{"indexed":false,"internalType":"bool","name":"toSeller","type":"bool"}],"name":"Resolved","type":"event"},{"inputs":[],"name":"amount","outputs":[{"internalType":"uint256","name":"","type":"uint256"}],"stateMutability":"view","type":"function"},{"inputs":[],"name":"arbiter","outputs":[{"internalType":"address","name":"","type":"address"}],"stateMutability":"view","type":"function"},{"inputs":[],"name":"buyer","outputs":[{"internalType":"address","name":"","type":"address"}],"stateMutability":"view","type":"function"},{"inputs":[],"name":"confirmDelivery","outputs":[],"stateMutability":"nonpayable","type":"function"},{"inputs":[],"name":"deposit","outputs":[],"stateMutability":"payable","type":"function"},{"inputs":[],"name":"getStatus","outputs":[{"internalType":"enum Escrow.Status","name":"","type":"uint8"}],"stateMutability":"view","type":"function"},{"inputs":[],"name":"raiseDispute","outputs":[],"stateMutability":"nonpayable","type":"function"},{"inputs":[],"name":"releaseFunds","outputs":[],"stateMutability":"nonpayable","type":"function"},{"inputs":[{"internalType":"bool","name":"toSeller","type":"bool"}],"name":"resolveDispute","outputs":[],"stateMutability":"nonpayable","type":"function"},{"inputs":[],"name":"seller","outputs":[{"internalType":"address","name":"","type":"address"}],"stateMutability":"view","type":"function"},{"inputs":[],"name":"status","outputs":[{"internalType":"enum Escrow.Status","name":"","type":"uint8"}],"stateMutability":"view","type":"function"},{"stateMutability":"payable","type":"receive"}],"evm":{"bytecode":{"linkReferences":{},"object":"60e060405234801561001057600080fd5b506040516112d13803806112d1833981810160405281019061003291906101d5565b600073ffffffffffffffffffffffffffffffffffffffff168273ffffffffffffffffffffffffffffffffffffffff160361006b57600080fd5b600073ffffffffffffffffffffffffffffffffffffffff168173ffffffffffffffffffffffffffffffffffffffff16036100a457600080fd5b3373ffffffffffffffffffffffffffffffffffffffff1660808173ffffffffffffffffffffffffffffffffffffffff16815250508173ffffffffffffffffffffffffffffffffffffffff1660a08173ffffffffffffffffffffffffffffffffffffffff16815250508073ffffffffffffffffffffffffffffffffffffffff1660c08173ffffffffffffffffffffffffffffffffffffffff16815250506000600160006101000a81548160ff0219169083600481111561016657610165610215565b5b02179055505050610244565b600080fd5b600073ffffffffffffffffffffffffffffffffffffffff82169050919050565b60006101a282610177565b9050919050565b6101b281610197565b81146101bd57600080fd5b50565b6000815190506101cf816101a9565b92915050565b600080604083850312156101ec576101eb610172565b5b60006101fa858286016101c0565b925050602061020b858286016101c0565b9150509250929050565b7f4e487b7100000000000000000000000000000000000000000000000000000000600052602160045260246000fd5b60805160a05160c0516110186102b9600039600081816108a80152610d470152600081816102280152818161027601528181610562015281816106250152818161070a0152610a5b0152600081816103da015281816106b30152818161088401528181610a350152610b9801526110186000f3fe6080604052600436106100a05760003560e01c80636daa2d44116100645780636daa2d441461015b5780637150d8ae1461017257806389e1e82a1461019d578063aa8c217c146101c6578063d0e30db0146101f1578063fe25e00a146101fb576100a7565b806308551a53146100ac578063200d2ed2146100d75780634e69d560146101025780635e10177b1461012d57806369d8957514610144576100a7565b366100a757005b600080fd5b3480156100b857600080fd5b506100c1610226565b6040516100ce9190610daa565b60405180910390f35b3480156100e357600080fd5b506100ec61024a565b6040516100f99190610e3c565b60405180910390f35b34801561010e57600080fd5b5061011761025d565b6040516101249190610e3c565b60405180910390f35b34801561013957600080fd5b50610142610274565b005b34801561015057600080fd5b506101596103d8565b005b34801561016757600080fd5b506101706106b1565b005b34801561017e57600080fd5b50610187610882565b6040516101949190610daa565b60405180910390f35b3480156101a957600080fd5b506101c460048036038101906101bf9190610e94565b6108a6565b005b3480156101d257600080fd5b506101db610b90565b6040516101e89190610eda565b60405180910390f35b6101f9610b96565b005b34801561020757600080fd5b50610210610d45565b60405161021d9190610daa565b60405180910390f35b7f000000000000000000000000000000000000000000000000000000000000000081565b600160009054906101000a900460ff1681565b6000600160009054906101000a900460ff16905090565b7f000000000000000000000000000000000000000000000000000000000000000073ffffffffffffffffffffffffffffffffffffffff163373ffffffffffffffffffffffffffffffffffffffff16146102f9576040517f5ec8235100000000000000000000000000000000000000000000000000000000815260040160405180910390fd5b600180600481111561030e5761030d610dc5565b5b600160009054906101000a900460ff1660048111156103305761032f610dc5565b5b14610367576040517fbaf3f0f700000000000000000000000000000000000000000000000000000000815260040160405180910390fd5b6002600160006101000a81548160ff0219169083600481111561038d5761038c610dc5565b5b02179055503373ffffffffffffffffffffffffffffffffffffffff167ffedf826d9b4a1fe2a221dc900337fc72788ddb41c7ae6600c110ca2858365da460405160405180910390a250565b7f000000000000000000000000000000000000000000000000000000000000000073ffffffffffffffffffffffffffffffffffffffff163373ffffffffffffffffffffffffffffffffffffffff161461045d576040517f472e017e00000000000000000000000000000000000000000000000000000000815260040160405180910390fd5b600280600481111561047257610471610dc5565b5b600160009054906101000a900460ff16600481111561049457610493610dc5565b5b146104cb576040517fbaf3f0f700000000000000000000000000000000000000000000000000000000815260040160405180910390fd5b60018054906101000a900460ff1615610519576040517f08c379a000000000000000000000000000000000000000000000000000000000815260040161051090610f52565b60405180910390fd5b60018060016101000a81548160ff0219169083151502179055506004600160006101000a81548160ff0219169083600481111561055957610558610dc5565b5b021790555060007f000000000000000000000000000000000000000000000000000000000000000073ffffffffffffffffffffffffffffffffffffffff166000546040516105a690610fa3565b60006040518083038185875af1925050503d80600081146105e3576040519150601f19603f3d011682016040523d82523d6000602084013e6105e8565b606091505b5050905080610623576040517f90b8ec1800000000000000000000000000000000000000000000000000000000815260040160405180910390fd5b7f000000000000000000000000000000000000000000000000000000000000000073ffffffffffffffffffffffffffffffffffffffff167fb21fb52d5749b80f3182f8c6992236b5e5576681880914484d7f4c9b062e619e60005460405161068b9190610eda565b60405180910390a25060006001806101000a81548160ff02191690831515021790555050565b7f000000000000000000000000000000000000000000000000000000000000000073ffffffffffffffffffffffffffffffffffffffff163373ffffffffffffffffffffffffffffffffffffffff161415801561075957507f000000000000000000000000000000000000000000000000000000000000000073ffffffffffffffffffffffffffffffffffffffff163373ffffffffffffffffffffffffffffffffffffffff1614155b1561076357600080fd5b6001600481111561077757610776610dc5565b5b600160009054906101000a900460ff16600481111561079957610798610dc5565b5b141580156107db5750600260048111156107b6576107b5610dc5565b5b600160009054906101000a900460ff1660048111156107d8576107d7610dc5565b5b14155b15610812576040517fbaf3f0f700000000000000000000000000000000000000000000000000000000815260040160405180910390fd5b6003600160006101000a81548160ff0219169083600481111561083857610837610dc5565b5b02179055503373ffffffffffffffffffffffffffffffffffffffff167f695fbf2fe28b4fde5705122279ffc4160ebfc0f45e4d96f7e6699001be5062ef60405160405180910390a2565b7f000000000000000000000000000000000000000000000000000000000000000081565b7f000000000000000000000000000000000000000000000000000000000000000073ffffffffffffffffffffffffffffffffffffffff163373ffffffffffffffffffffffffffffffffffffffff161461092b576040517fccb665a600000000000000000000000000000000000000000000000000000000815260040160405180910390fd5b60038060048111156109405761093f610dc5565b5b600160009054906101000a900460ff16600481111561096257610961610dc5565b5b14610999576040517fbaf3f0f700000000000000000000000000000000000000000000000000000000815260040160405180910390fd5b60018054906101000a900460ff16156109e7576040517f08c379a00000000000000000000000000000000000000000000000000000000081526004016109de90610f52565b60405180910390fd5b60018060016101000a81548160ff0219169083151502179055506004600160006101000a81548160ff02191690836004811115610a2757610a26610dc5565b5b0217905550600082610a59577f0000000000000000000000000000000000000000000000000000000000000000610a7b565b7f00000000000000000000000000000000000000000000000000000000000000005b905060008173ffffffffffffffffffffffffffffffffffffffff16600054604051610aa590610fa3565b60006040518083038185875af1925050503d8060008114610ae2576040519150601f19603f3d011682016040523d82523d6000602084013e610ae7565b606091505b5050905080610b22576040517f90b8ec1800000000000000000000000000000000000000000000000000000000815260040160405180910390fd5b3373ffffffffffffffffffffffffffffffffffffffff167fc5767b31234c04312d2a3b199c34fe17682935203f9690186b7a73c329ae250285604051610b689190610fc7565b60405180910390a2505060006001806101000a81548160ff0219169083151502179055505050565b60005481565b7f000000000000000000000000000000000000000000000000000000000000000073ffffffffffffffffffffffffffffffffffffffff163373ffffffffffffffffffffffffffffffffffffffff1614610c1b576040517f472e017e00000000000000000000000000000000000000000000000000000000815260040160405180910390fd5b6000806004811115610c3057610c2f610dc5565b5b600160009054906101000a900460ff166004811115610c5257610c51610dc5565b5b14610c89576040517fbaf3f0f700000000000000000000000000000000000000000000000000000000815260040160405180910390fd5b60003403610cc3576040517f1f2a200500000000000000000000000000000000000000000000000000000000815260040160405180910390fd5b3460008190555060018060006101000a81548160ff02191690836004811115610cef57610cee610dc5565b5b02179055503373ffffffffffffffffffffffffffffffffffffffff167f2da466a7b24304f47e87fa2e1e5a81b9831ce54fec19055ce277ca2f39ba42c434604051610d3a9190610eda565b60405180910390a250565b7f000000000000000000000000000000000000000000000000000000000000000081565b600073ffffffffffffffffffffffffffffffffffffffff82169050919050565b6000610d9482610d69565b9050919050565b610da481610d89565b82525050565b6000602082019050610dbf6000830184610d9b565b92915050565b7f4e487b7100000000000000000000000000000000000000000000000000000000600052602160045260246000fd5b60058110610e0557610e04610dc5565b5b50565b6000819050610e1682610df4565b919050565b6000610e2682610e08565b9050919050565b610e3681610e1b565b82525050565b6000602082019050610e516000830184610e2d565b92915050565b600080fd5b60008115159050919050565b610e7181610e5c565b8114610e7c57600080fd5b50565b600081359050610e8e81610e68565b92915050565b600060208284031215610eaa57610ea9610e57565b5b6000610eb884828501610e7f565b91505092915050565b6000819050919050565b610ed481610ec1565b82525050565b6000602082019050610eef6000830184610ecb565b92915050565b600082825260208201905092915050565b7f5245454e5452414e435900000000000000000000000000000000000000000000600082015250565b6000610f3c600a83610ef5565b9150610f4782610f06565b602082019050919050565b60006020820190508181036000830152610f6b81610f2f565b9050919050565b600081905092915050565b50565b6000610f8d600083610f72565b9150610f9882610f7d565b600082019050919050565b6000610fae82610f80565b9150819050919050565b610fc181610e5c565b82525050565b6000602082019050610fdc6000830184610fb8565b9291505056fea264697066735822122022947e969c0b77dfff0fe27ca73bb3ca8cc79443d1d4ac92203535f8c440388e64736f6c634300081c0033","opcodes":"PUSH1 0xE0 PUSH1 0x40 MSTORE CALLVALUE DUP1 ISZERO PUSH2 0x10 JUMPI PUSH1 0x0 DUP1 REVERT JUMPDEST POP PUSH1 0x40 MLOAD PUSH2 0x12D1 CODESIZE SUB DUP1 PUSH2 0x12D1 DUP4 CODECOPY DUP2 DUP2 ADD PUSH1 0x40 MSTORE DUP2 ADD SWAP1 PUSH2 0x32 SWAP2 SWAP1 PUSH2 0x1D5 JUMP JUMPDEST PUSH1 0x0 PUSH20 0xFFFFFFFFFFFFFFFFFFFFFFFFFFFFFFFFFFFFFFFF AND DUP3 PUSH20 0xFFFFFFFFFFFFFFFFFFFFFFFFFFFFFFFFFFFFFFFF AND SUB PUSH2 0x6B JUMPI PUSH1 0x0 DUP1 REVERT JUMPDEST PUSH1 0x0 PUSH20 0xFFFFFFFFFFFFFFFFFFFFFFFFFFFFFFFFFFFFFFFF AND DUP2 PUSH20 0xFFFFFFFFFFFFFFFFFFFFFFFFFFFFFFFFFFFFFFFF AND SUB PUSH2 0xA4 JUMPI PUSH1 0x0 DUP1 REVERT JUMPDEST CALLER PUSH20 0xFFFFFFFFFFFFFFFFFFFFFFFFFFFFFFFFFFFFFFFF AND PUSH1 0x80 DUP2 PUSH20 0xFFFFFFFFFFFFFFFFFFFFFFFFFFFFFFFFFFFFFFFF AND DUP2 MSTORE POP POP DUP2 PUSH20 0xFFFFFFFFFFFFFFFFFFFFFFFFFFFFFFFFFFFFFFFF AND PUSH1 0xA0 DUP2 PUSH20 0xFFFFFFFFFFFFFFFFFFFFFFFFFFFFFFFFFFFFFFFF AND DUP2 MSTORE POP POP DUP1 PUSH20 0xFFFFFFFFFFFFFFFFFFFFFFFFFFFFFFFFFFFFFFFF AND PUSH1 0xC0 DUP2 PUSH20 0xFFFFFFFFFFFFFFFFFFFFFFFFFFFFFFFFFFFFFFFF AND DUP2 MSTORE POP POP PUSH1 0x0 PUSH1 0x1 PUSH1 0x0 PUSH2 0x100 EXP DUP2 SLOAD DUP2 PUSH1 0xFF MUL NOT AND SWAP1 DUP4 PUSH1 0x4 DUP2 GT ISZERO PUSH2 0x166 JUMPI PUSH2 0x165 PUSH2 0x215 JUMP JUMPDEST JUMPDEST MUL OR SWAP1 SSTORE POP POP POP PUSH2 0x244 JUMP JUMPDEST PUSH1 0x0 DUP1 REVERT JUMPDEST PUSH1 0x0 PUSH20 0xFFFFFFFFFFFFFFFFFFFFFFFFFFFFFFFFFFFFFFFF DUP3 AND SWAP1 POP SWAP2 SWAP1 POP JUMP JUMPDEST PUSH1 0x0 PUSH2 0x1A2 DUP3 PUSH2 0x177 JUMP JUMPDEST SWAP1 POP SWAP2 SWAP1 POP JUMP JUMPDEST PUSH2 0x1B2 DUP2 PUSH2 0x197 JUMP JUMPDEST DUP2 EQ PUSH2 0x1BD JUMPI PUSH1 0x0 DUP1 REVERT JUMPDEST POP JUMP JUMPDEST PUSH1 0x0 DUP2 MLOAD SWAP1 POP PUSH2 0x1CF DUP2 PUSH2 0x1A9 JUMP JUMPDEST SWAP3 SWAP2 POP POP JUMP JUMPDEST PUSH1 0x0 DUP1 PUSH1 0x40 DUP4 DUP6 SUB SLT ISZERO PUSH2 0x1EC JUMPI PUSH2 0x1EB PUSH2 0x172 JUMP JUMPDEST JUMPDEST PUSH1 0x0 PUSH2 0x1FA DUP6 DUP3 DUP7 ADD PUSH2 0x1C0 JUMP JUMPDEST SWAP3 POP POP PUSH1 0x20 PUSH2 0x20B DUP6 DUP3 DUP7 ADD PUSH2 0x1C0 JUMP JUMPDEST SWAP2 POP POP SWAP3 POP SWAP3 SWAP1 POP JUMP JUMPDEST PUSH32 0x4E487B7100000000000000000000000000000000000000000000000000000000 PUSH1 0x0 MSTORE PUSH1 0x21 PUSH1 0x4 MSTORE PUSH1 0x24 PUSH1 0x0 REVERT JUMPDEST PUSH1 0x80 MLOAD PUSH1 0xA0 MLOAD PUSH1 0xC0 MLOAD PUSH2 0x1018 PUSH2 0x2B9 PUSH1 0x0 CODECOPY PUSH1 0x0 DUP2 DUP2 PUSH2 0x8A8 ADD MSTORE PUSH2 0xD47 ADD MSTORE PUSH1 0x0 DUP2 DUP2 PUSH2 0x228 ADD MSTORE DUP2 DUP2 PUSH2 0x276 ADD MSTORE DUP2 DUP2 PUSH2 0x562 ADD MSTORE DUP2 DUP2 PUSH2 0x625 ADD MSTORE DUP2 DUP2 PUSH2 0x70A ADD MSTORE PUSH2 0xA5B ADD MSTORE PUSH1 0x0 DUP2 DUP2 PUSH2 0x3DA ADD MSTORE DUP2 DUP2 PUSH2 0x6B3 ADD MSTORE DUP2 DUP2 PUSH2 0x884 ADD MSTORE DUP2 DUP2 PUSH2 0xA35 ADD MSTORE PUSH2 0xB98 ADD MSTORE PUSH2 0x1018 PUSH1 0x0 RETURN INVALID PUSH1 0x80 PUSH1 0x40 MSTORE PUSH1 0x4 CALLDATASIZE LT PUSH2 0xA0 JUMPI PUSH1 0x0 CALLDATALOAD PUSH1 0xE0 SHR DUP1 PUSH4 0x6DAA2D44 GT PUSH2 0x64 JUMPI DUP1 PUSH4 0x6DAA2D44 EQ PUSH2 0x15B JUMPI DUP1 PUSH4 0x7150D8AE EQ PUSH2 0x172 JUMPI DUP1 PUSH4 0x89E1E82A EQ PUSH2 0x19D JUMPI DUP1 PUSH4 0xAA8C217C EQ PUSH2 0x1C6 JUMPI DUP1 PUSH4 0xD0E30DB0 EQ PUSH2 0x1F1 JUMPI DUP1 PUSH4 0xFE25E00A EQ PUSH2 0x1FB JUMPI PUSH2 0xA7 JUMP JUMPDEST DUP1 PUSH4 0x8551A53 EQ PUSH2 0xAC JUMPI DUP1 PUSH4 0x200D2ED2 EQ PUSH2 0xD7 JUMPI DUP1 PUSH4 0x4E69D560 EQ PUSH2 0x102 JUMPI DUP1 PUSH4 0x5E10177B EQ PUSH2 0x12D JUMPI DUP1 PUSH4 0x69D89575 EQ PUSH2 0x144 JUMPI PUSH2 0xA7 JUMP JUMPDEST CALLDATASIZE PUSH2 0xA7 JUMPI STOP JUMPDEST PUSH1 0x0 DUP1 REVERT JUMPDEST CALLVALUE DUP1 ISZERO PUSH2 0xB8 JUMPI PUSH1 0x0 DUP1 REVERT JUMPDEST POP PUSH2 0xC1 PUSH2 0x226 JUMP JUMPDEST PUSH1 0x40 MLOAD PUSH2 0xCE SWAP2 SWAP1 PUSH2 0xDAA JUMP JUMPDEST PUSH1 0x40 MLOAD DUP1 SWAP2 SUB SWAP1 RETURN JUMPDEST CALLVALUE DUP1 ISZERO PUSH2 0xE3 JUMPI PUSH1 0x0 DUP1 REVERT JUMPDEST POP PUSH2 0xEC PUSH2 0x24A JUMP JUMPDEST PUSH1 0x40 MLOAD PUSH2 0xF9 SWAP2 SWAP1 PUSH2 0xE3C JUMP JUMPDEST PUSH1 0x40 MLOAD DUP1 SWAP2 SUB SWAP1 RETURN JUMPDEST CALLVALUE DUP1 ISZERO PUSH2 0x10E JUMPI PUSH1 0x0 DUP1 REVERT JUMPDEST POP PUSH2 0x117 PUSH2 0x25D JUMP JUMPDEST PUSH1 0x40 MLOAD PUSH2 0x124 SWAP2 SWAP1 PUSH2 0xE3C JUMP JUMPDEST PUSH1 0x40 MLOAD DUP1 SWAP2 SUB SWAP1 RETURN JUMPDEST CALLVALUE DUP1 ISZERO PUSH2 0x139 JUMPI PUSH1 0x0 DUP1 REVERT JUMPDEST POP PUSH2 0x142 PUSH2 0x274 JUMP JUMPDEST STOP JUMPDEST CALLVALUE DUP1 ISZERO PUSH2 0x150 JUMPI PUSH1 0x0 DUP1 REVERT JUMPDEST POP PUSH2 0x159 PUSH2 0x3D8 JUMP JUMPDEST STOP JUMPDEST CALLVALUE DUP1 ISZERO PUSH2 0x167 JUMPI PUSH1 0x0 DUP1 REVERT JUMPDEST POP PUSH2 0x170 PUSH2 0x6B1 JUMP JUMPDEST STOP JUMPDEST CALLVALUE DUP1 ISZERO PUSH2 0x17E JUMPI PUSH1 0x0 DUP1 REVERT JUMPDEST POP PUSH2 0x187 PUSH2 0x882 JUMP JUMPDEST PUSH1 0x40 MLOAD PUSH2 0x194 SWAP2 SWAP1 PUSH2 0xDAA JUMP JUMPDEST PUSH1 0x40 MLOAD DUP1 SWAP2 SUB SWAP1 RETURN JUMPDEST CALLVALUE DUP1 ISZERO PUSH2 0x1A9 JUMPI PUSH1 0x0 DUP1 REVERT JUMPDEST POP PUSH2 0x1C4 PUSH1 0x4 DUP1 CALLDATASIZE SUB DUP2 ADD SWAP1 PUSH2 0x1BF SWAP2 SWAP1 PUSH2 0xE94 JUMP JUMPDEST PUSH2 0x8A6 JUMP JUMPDEST STOP JUMPDEST CALLVALUE DUP1 ISZERO PUSH2 0x1D2 JUMPI PUSH1 0x0 DUP1 REVERT JUMPDEST POP PUSH2 0x1DB PUSH2 0xB90 JUMP JUMPDEST PUSH1 0x40 MLOAD PUSH2 0x1E8 SWAP2 SWAP1 PUSH2 0xEDA JUMP JUMPDEST PUSH1 0x40 MLOAD DUP1 SWAP2 SUB SWAP1 RETURN JUMPDEST PUSH2 0x1F9 PUSH2 0xB96 JUMP JUMPDEST STOP JUMPDEST CALLVALUE DUP1 ISZERO PUSH2 0x207 JUMPI PUSH1 0x0 DUP1 REVERT JUMPDEST POP PUSH2 0x210 PUSH2 0xD45 JUMP JUMPDEST PUSH1 0x40 MLOAD PUSH2 0x21D SWAP2 SWAP1 PUSH2 0xDAA JUMP JUMPDEST PUSH1 0x40 MLOAD DUP1 SWAP2 SUB SWAP1 RETURN JUMPDEST PUSH32 0x0 DUP2 JUMP JUMPDEST PUSH1 0x1 PUSH1 0x0 SWAP1 SLOAD SWAP1 PUSH2 0x100 EXP SWAP1 DIV PUSH1 0xFF AND DUP2 JUMP JUMPDEST PUSH1 0x0 PUSH1 0x1 PUSH1 0x0 SWAP1 SLOAD SWAP1 PUSH2 0x100 EXP SWAP1 DIV PUSH1 0xFF AND SWAP1 POP SWAP1 JUMP JUMPDEST PUSH32 0x0 PUSH20 0xFFFFFFFFFFFFFFFFFFFFFFFFFFFFFFFFFFFFFFFF AND CALLER PUSH20 0xFFFFFFFFFFFFFFFFFFFFFFFFFFFFFFFFFFFFFFFF AND EQ PUSH2 0x2F9 JUMPI PUSH1 0x40 MLOAD PUSH32 0x5EC8235100000000000000000000000000000000000000000000000000000000 DUP2 MSTORE PUSH1 0x4 ADD PUSH1 0x40 MLOAD DUP1 SWAP2 SUB SWAP1 REVERT JUMPDEST PUSH1 0x1 DUP1 PUSH1 0x4 DUP2 GT ISZERO PUSH2 0x30E JUMPI PUSH2 0x30D PUSH2 0xDC5 JUMP JUMPDEST JUMPDEST PUSH1 0x1 PUSH1 0x0 SWAP1 SLOAD SWAP1 PUSH2 0x100 EXP SWAP1 DIV PUSH1 0xFF AND PUSH1 0x4 DUP2 GT ISZERO PUSH2 0x330 JUMPI PUSH2 0x32F PUSH2 0xDC5 JUMP JUMPDEST JUMPDEST EQ PUSH2 0x367 JUMPI PUSH1 0x40 MLOAD PUSH32 0xBAF3F0F700000000000000000000000000000000000000000000000000000000 DUP2 MSTORE PUSH1 0x4 ADD PUSH1 0x40 MLOAD DUP1 SWAP2 SUB SWAP1 REVERT JUMPDEST PUSH1 0x2 PUSH1 0x1 PUSH1 0x0 PUSH2 0x100 EXP DUP2 SLOAD DUP2 PUSH1 0xFF MUL NOT AND SWAP1 DUP4 PUSH1 0x4 DUP2 GT ISZERO PUSH2 0x38D JUMPI PUSH2 0x38C PUSH2 0xDC5 JUMP JUMPDEST JUMPDEST MUL OR SWAP1 SSTORE POP CALLER PUSH20 0xFFFFFFFFFFFFFFFFFFFFFFFFFFFFFFFFFFFFFFFF AND PUSH32 0xFEDF826D9B4A1FE2A221DC900337FC72788DDB41C7AE6600C110CA2858365DA4 PUSH1 0x40 MLOAD PUSH1 0x40 MLOAD DUP1 SWAP2 SUB SWAP1 LOG2 POP JUMP JUMPDEST PUSH32 0x0 PUSH20 0xFFFFFFFFFFFFFFFFFFFFFFFFFFFFFFFFFFFFFFFF AND CALLER PUSH20 0xFFFFFFFFFFFFFFFFFFFFFFFFFFFFFFFFFFFFFFFF AND EQ PUSH2 0x45D JUMPI PUSH1 0x40 MLOAD PUSH32 0x472E017E00000000000000000000000000000000000000000000000000000000 DUP2 MSTORE PUSH1 0x4 ADD PUSH1 0x40 MLOAD DUP1 SWAP2 SUB SWAP1 REVERT JUMPDEST PUSH1 0x2 DUP1 PUSH1 0x4 DUP2 GT ISZERO PUSH2 0x472 JUMPI PUSH2 0x471 PUSH2 0xDC5 JUMP JUMPDEST JUMPDEST PUSH1 0x1 PUSH1 0x0 SWAP1 SLOAD SWAP1 PUSH2 0x100 EXP SWAP1 DIV PUSH1 0xFF AND PUSH1 0x4 DUP2 GT ISZERO PUSH2 0x494 JUMPI PUSH2 0x493 PUSH2 0xDC5 JUMP JUMPDEST JUMPDEST EQ PUSH2 0x4CB JUMPI PUSH1 0x40 MLOAD PUSH32 0xBAF3F0F700000000000000000000000000000000000000000000000000000000 DUP2 MSTORE PUSH1 0x4 ADD PUSH1 0x40 MLOAD DUP1 SWAP2 SUB SWAP1 REVERT JUMPDEST PUSH1 0x1 DUP1 SLOAD SWAP1 PUSH2 0x100 EXP SWAP1 DIV PUSH1 0xFF AND ISZERO PUSH2 0x519 JUMPI PUSH1 0x40 MLOAD PUSH32 0x8C379A000000000000000000000000000000000000000000000000000000000 DUP2 MSTORE PUSH1 0x4 ADD PUSH2 0x510 SWAP1 PUSH2 0xF52 JUMP JUMPDEST PUSH1 0x40 MLOAD DUP1 SWAP2 SUB SWAP1 REVERT JUMPDEST PUSH1 0x1 DUP1 PUSH1 0x1 PUSH2 0x100 EXP DUP2 SLOAD DUP2 PUSH1 0xFF MUL NOT AND SWAP1 DUP4 ISZERO ISZERO MUL OR SWAP1 SSTORE POP PUSH1 0x4 PUSH1 0x1 PUSH1 0x0 PUSH2 0x100 EXP DUP2 SLOAD DUP2 PUSH1 0xFF MUL NOT AND SWAP1 DUP4 PUSH1 0x4 DUP2 GT ISZERO PUSH2 0x559 JUMPI PUSH2 0x558 PUSH2 0xDC5 JUMP JUMPDEST JUMPDEST MUL OR SWAP1 SSTORE POP PUSH1 0x0 PUSH32 0x0 PUSH20 0xFFFFFFFFFFFFFFFFFFFFFFFFFFFFFFFFFFFFFFFF AND PUSH1 0x0 SLOAD PUSH1 0x40 MLOAD PUSH2 0x5A6 SWAP1 PUSH2 0xFA3 JUMP JUMPDEST PUSH1 0x0 PUSH1 0x40 MLOAD DUP1 DUP4 SUB DUP2 DUP6 DUP8 GAS CALL SWAP3 POP POP POP RETURNDATASIZE DUP1 PUSH1 0x0 DUP2 EQ PUSH2 0x5E3 JUMPI PUSH1 0x40 MLOAD SWAP2 POP PUSH1 0x1F NOT PUSH1 0x3F RETURNDATASIZE ADD AND DUP3 ADD PUSH1 0x40 MSTORE RETURNDATASIZE DUP3 MSTORE RETURNDATASIZE PUSH1 0x0 PUSH1 0x20 DUP5 ADD RETURNDATACOPY PUSH2 0x5E8 JUMP JUMPDEST PUSH1 0x60 SWAP2 POP JUMPDEST POP POP SWAP1 POP DUP1 PUSH2 0x623 JUMPI PUSH1 0x40 MLOAD PUSH32 0x90B8EC1800000000000000000000000000000000000000000000000000000000 DUP2 MSTORE PUSH1 0x4 ADD PUSH1 0x40 MLOAD DUP1 SWAP2 SUB SWAP1 REVERT JUMPDEST PUSH32 0x0 PUSH20 0xFFFFFFFFFFFFFFFFFFFFFFFFFFFFFFFFFFFFFFFF AND PUSH32 0xB21FB52D5749B80F3182F8C6992236B5E5576681880914484D7F4C9B062E619E PUSH1 0x0 SLOAD PUSH1 0x40 MLOAD PUSH2 0x68B SWAP2 SWAP1 PUSH2 0xEDA JUMP JUMPDEST PUSH1 0x40 MLOAD DUP1 SWAP2 SUB SWAP1 LOG2 POP PUSH1 0x0 PUSH1 0x1 DUP1 PUSH2 0x100 EXP DUP2 SLOAD DUP2 PUSH1 0xFF MUL NOT AND SWAP1 DUP4 ISZERO ISZERO MUL OR SWAP1 SSTORE POP POP JUMP JUMPDEST PUSH32 0x0 PUSH20 0xFFFFFFFFFFFFFFFFFFFFFFFFFFFFFFFFFFFFFFFF AND CALLER PUSH20 0xFFFFFFFFFFFFFFFFFFFFFFFFFFFFFFFFFFFFFFFF AND EQ ISZERO DUP1 ISZERO PUSH2 0x759 JUMPI POP PUSH32 0x0 PUSH20 0xFFFFFFFFFFFFFFFFFFFFFFFFFFFFFFFFFFFFFFFF AND CALLER PUSH20 0xFFFFFFFFFFFFFFFFFFFFFFFFFFFFFFFFFFFFFFFF AND EQ ISZERO JUMPDEST ISZERO PUSH2 0x763 JUMPI PUSH1 0x0 DUP1 REVERT JUMPDEST PUSH1 0x1 PUSH1 0x4 DUP2 GT ISZERO PUSH2 0x777 JUMPI PUSH2 0x776 PUSH2 0xDC5 JUMP JUMPDEST JUMPDEST PUSH1 0x1 PUSH1 0x0 SWAP1 SLOAD SWAP1 PUSH2 0x100 EXP SWAP1 DIV PUSH1 0xFF AND PUSH1 0x4 DUP2 GT ISZERO PUSH2 0x799 JUMPI PUSH2 0x798 PUSH2 0xDC5 JUMP JUMPDEST JUMPDEST EQ ISZERO DUP1 ISZERO PUSH2 0x7DB JUMPI POP PUSH1 0x2 PUSH1 0x4 DUP2 GT ISZERO PUSH2 0x7B6 JUMPI PUSH2 0x7B5 PUSH2 0xDC5 JUMP JUMPDEST JUMPDEST PUSH1 0x1 PUSH1 0x0 SWAP1 SLOAD SWAP1 PUSH2 0x100 EXP SWAP1 DIV PUSH1 0xFF AND PUSH1 0x4 DUP2 GT ISZERO PUSH2 0x7D8 JUMPI PUSH2 0x7D7 PUSH2 0xDC5 JUMP JUMPDEST JUMPDEST EQ ISZERO JUMPDEST ISZERO PUSH2 0x812 JUMPI PUSH1 0x40 MLOAD PUSH32 0xBAF3F0F700000000000000000000000000000000000000000000000000000000 DUP2 MSTORE PUSH1 0x4 ADD PUSH1 0x40 MLOAD DUP1 SWAP2 SUB SWAP1 REVERT JUMPDEST PUSH1 0x3 PUSH1 0x1 PUSH1 0x0 PUSH2 0x100 EXP DUP2 SLOAD DUP2 PUSH1 0xFF MUL NOT AND SWAP1 DUP4 PUSH1 0x4 DUP2 GT ISZERO PUSH2 0x838 JUMPI PUSH2 0x837 PUSH2 0xDC5 JUMP JUMPDEST JUMPDEST MUL OR SWAP1 SSTORE POP CALLER PUSH20 0xFFFFFFFFFFFFFFFFFFFFFFFFFFFFFFFFFFFFFFFF AND PUSH32 0x695FBF2FE28B4FDE5705122279FFC4160EBFC0F45E4D96F7E6699001BE5062EF PUSH1 0x40 MLOAD PUSH1 0x40 MLOAD DUP1 SWAP2 SUB SWAP1 LOG2 JUMP JUMPDEST PUSH32 0x0 DUP2 JUMP JUMPDEST PUSH32 0x0 PUSH20 0xFFFFFFFFFFFFFFFFFFFFFFFFFFFFFFFFFFFFFFFF AND CALLER PUSH20 0xFFFFFFFFFFFFFFFFFFFFFFFFFFFFFFFFFFFFFFFF AND EQ PUSH2 0x92B JUMPI PUSH1 0x40 MLOAD PUSH32 0xCCB665A600000000000000000000000000000000000000000000000000000000 DUP2 MSTORE PUSH1 0x4 ADD PUSH1 0x40 MLOAD DUP1 SWAP2 SUB SWAP1 REVERT JUMPDEST PUSH1 0x3 DUP1 PUSH1 0x4 DUP2 GT ISZERO PUSH2 0x940 JUMPI PUSH2 0x93F PUSH2 0xDC5 JUMP JUMPDEST JUMPDEST PUSH1 0x1 PUSH1 0x0 SWAP1 SLOAD SWAP1 PUSH2 0x100 EXP SWAP1 DIV PUSH1 0xFF AND PUSH1 0x4 DUP2 GT ISZERO PUSH2 0x962 JUMPI PUSH2 0x961 PUSH2 0xDC5 JUMP JUMPDEST JUMPDEST EQ PUSH2 0x999 JUMPI PUSH1 0x40 MLOAD PUSH32 0xBAF3F0F700000000000000000000000000000000000000000000000000000000 DUP2 MSTORE PUSH1 0x4 ADD PUSH1 0x40 MLOAD DUP1 SWAP2 SUB SWAP1 REVERT JUMPDEST PUSH1 0x1 DUP1 SLOAD SWAP1 PUSH2 0x100 EXP SWAP1 DIV PUSH1 0xFF AND ISZERO PUSH2 0x9E7 JUMPI PUSH1 0x40 MLOAD PUSH32 0x8C379A000000000000000000000000000000000000000000000000000000000 DUP2 MSTORE PUSH1 0x4 ADD PUSH2 0x9DE SWAP1 PUSH2 0xF52 JUMP JUMPDEST PUSH1 0x40 MLOAD DUP1 SWAP2 SUB SWAP1 REVERT JUMPDEST PUSH1 0x1 DUP1 PUSH1 0x1 PUSH2 0x100 EXP DUP2 SLOAD DUP2 PUSH1 0xFF MUL NOT AND SWAP1 DUP4 ISZERO ISZERO MUL OR SWAP1 SSTORE POP PUSH1 0x4 PUSH1 0x1 PUSH1 0x0 PUSH2 0x100 EXP DUP2 SLOAD DUP2 PUSH1 0xFF MUL NOT AND SWAP1 DUP4 PUSH1 0x4 DUP2 GT ISZERO PUSH2 0xA27 JUMPI PUSH2 0xA26 PUSH2 0xDC5 JUMP JUMPDEST JUMPDEST MUL OR SWAP1 SSTORE POP PUSH1 0x0 DUP3 PUSH2 0xA59 JUMPI PUSH32 0x0 PUSH2 0xA7B JUMP JUMPDEST PUSH32 0x0 JUMPDEST SWAP1 POP PUSH1 0x0 DUP2 PUSH20 0xFFFFFFFFFFFFFFFFFFFFFFFFFFFFFFFFFFFFFFFF AND PUSH1 0x0 SLOAD PUSH1 0x40 MLOAD PUSH2 0xAA5 SWAP1 PUSH2 0xFA3 JUMP JUMPDEST PUSH1 0x0 PUSH1 0x40 MLOAD DUP1 DUP4 SUB DUP2 DUP6 DUP8 GAS CALL SWAP3 POP POP POP RETURNDATASIZE DUP1 PUSH1 0x0 DUP2 EQ PUSH2 0xAE2 JUMPI PUSH1 0x40 MLOAD SWAP2 POP PUSH1 0x1F NOT PUSH1 0x3F RETURNDATASIZE ADD AND DUP3 ADD PUSH1 0x40 MSTORE RETURNDATASIZE DUP3 MSTORE RETURNDATASIZE PUSH1 0x0 PUSH1 0x20 DUP5 ADD RETURNDATACOPY PUSH2 0xAE7 JUMP JUMPDEST PUSH1 0x60 SWAP2 POP JUMPDEST POP POP SWAP1 POP DUP1 PUSH2 0xB22 JUMPI PUSH1 0x40 MLOAD PUSH32 0x90B8EC1800000000000000000000000000000000000000000000000000000000 DUP2 MSTORE PUSH1 0x4 ADD PUSH1 0x40 MLOAD DUP1 SWAP2 SUB SWAP1 REVERT JUMPDEST CALLER PUSH20 0xFFFFFFFFFFFFFFFFFFFFFFFFFFFFFFFFFFFFFFFF AND PUSH32 0xC5767B31234C04312D2A3B199C34FE17682935203F9690186B7A73C329AE2502 DUP6 PUSH1 0x40 MLOAD PUSH2 0xB68 SWAP2 SWAP1 PUSH2 0xFC7 JUMP JUMPDEST PUSH1 0x40 MLOAD DUP1 SWAP2 SUB SWAP1 LOG2 POP POP PUSH1 0x0 PUSH1 0x1 DUP1 PUSH2 0x100 EXP DUP2 SLOAD DUP2 PUSH1 0xFF MUL NOT AND SWAP1 DUP4 ISZERO ISZERO MUL OR SWAP1 SSTORE POP POP POP JUMP JUMPDEST PUSH1 0x0 SLOAD DUP2 JUMP JUMPDEST PUSH32 0x0 PUSH20 0xFFFFFFFFFFFFFFFFFFFFFFFFFFFFFFFFFFFFFFFF AND CALLER PUSH20 0xFFFFFFFFFFFFFFFFFFFFFFFFFFFFFFFFFFFFFFFF AND EQ PUSH2 0xC1B JUMPI PUSH1 0x40 MLOAD PUSH32 0x472E017E00000000000000000000000000000000000000000000000000000000 DUP2 MSTORE PUSH1 0x4 ADD PUSH1 0x40 MLOAD DUP1 SWAP2 SUB SWAP1 REVERT JUMPDEST PUSH1 0x0 DUP1 PUSH1 0x4 DUP2 GT ISZERO PUSH2 0xC30 JUMPI PUSH2 0xC2F PUSH2 0xDC5 JUMP JUMPDEST JUMPDEST PUSH1 0x1 PUSH1 0x0 SWAP1 SLOAD SWAP1 PUSH2 0x100 EXP SWAP1 DIV PUSH1 0xFF AND PUSH1 0x4 DUP2 GT ISZERO PUSH2 0xC52 JUMPI PUSH2 0xC51 PUSH2 0xDC5 JUMP JUMPDEST JUMPDEST EQ PUSH2 0xC89 JUMPI PUSH1 0x40 MLOAD PUSH32 0xBAF3F0F700000000000000000000000000000000000000000000000000000000 DUP2 MSTORE PUSH1 0x4 ADD PUSH1 0x40 MLOAD DUP1 SWAP2 SUB SWAP1 REVERT JUMPDEST PUSH1 0x0 CALLVALUE SUB PUSH2 0xCC3 JUMPI PUSH1 0x40 MLOAD PUSH32 0x1F2A200500000000000000000000000000000000000000000000000000000000 DUP2 MSTORE PUSH1 0x4 ADD PUSH1 0x40 MLOAD DUP1 SWAP2 SUB SWAP1 REVERT JUMPDEST CALLVALUE PUSH1 0x0 DUP2 SWAP1 SSTORE POP PUSH1 0x1 DUP1 PUSH1 0x0 PUSH2 0x100 EXP DUP2 SLOAD DUP2 PUSH1 0xFF MUL NOT AND SWAP1 DUP4 PUSH1 0x4 DUP2 GT ISZERO PUSH2 0xCEF JUMPI PUSH2 0xCEE PUSH2 0xDC5 JUMP JUMPDEST JUMPDEST MUL OR SWAP1 SSTORE POP CALLER PUSH20 0xFFFFFFFFFFFFFFFFFFFFFFFFFFFFFFFFFFFFFFFF AND PUSH32 0x2DA466A7B24304F47E87FA2E1E5A81B9831CE54FEC19055CE277CA2F39BA42C4 CALLVALUE PUSH1 0x40 MLOAD PUSH2 0xD3A SWAP2 SWAP1 PUSH2 0xEDA JUMP JUMPDEST PUSH1 0x40 MLOAD DUP1 SWAP2 SUB SWAP1 LOG2 POP JUMP JUMPDEST PUSH32 0x0 DUP2 JUMP JUMPDEST PUSH1 0x0 PUSH20 0xFFFFFFFFFFFFFFFFFFFFFFFFFFFFFFFFFFFFFFFF DUP3 AND SWAP1 POP SWAP2 SWAP1 POP JUMP JUMPDEST PUSH1 0x0 PUSH2 0xD94 DUP3 PUSH2 0xD69 JUMP JUMPDEST SWAP1 POP SWAP2 SWAP1 POP JUMP JUMPDEST PUSH2 0xDA4 DUP2 PUSH2 0xD89 JUMP JUMPDEST DUP3 MSTORE POP POP JUMP JUMPDEST PUSH1 0x0 PUSH1 0x20 DUP3 ADD SWAP1 POP PUSH2 0xDBF PUSH1 0x0 DUP4 ADD DUP5 PUSH2 0xD9B JUMP JUMPDEST SWAP3 SWAP2 POP POP JUMP JUMPDEST PUSH32 0x4E487B7100000000000000000000000000000000000000000000000000000000 PUSH1 0x0 MSTORE PUSH1 0x21 PUSH1 0x4 MSTORE PUSH1 0x24 PUSH1 0x0 REVERT JUMPDEST PUSH1 0x5 DUP2 LT PUSH2 0xE05 JUMPI PUSH2 0xE04 PUSH2 0xDC5 JUMP JUMPDEST JUMPDEST POP JUMP JUMPDEST PUSH1 0x0 DUP2 SWAP1 POP PUSH2 0xE16 DUP3 PUSH2 0xDF4 JUMP JUMPDEST SWAP2 SWAP1 POP JUMP JUMPDEST PUSH1 0x0 PUSH2 0xE26 DUP3 PUSH2 0xE08 JUMP JUMPDEST SWAP1 POP SWAP2 SWAP1 POP JUMP JUMPDEST PUSH2 0xE36 DUP2 PUSH2 0xE1B JUMP JUMPDEST DUP3 MSTORE POP POP JUMP JUMPDEST PUSH1 0x0 PUSH1 0x20 DUP3 ADD SWAP1 POP PUSH2 0xE51 PUSH1 0x0 DUP4 ADD DUP5 PUSH2 0xE2D JUMP JUMPDEST SWAP3 SWAP2 POP POP JUMP JUMPDEST PUSH1 0x0 DUP1 REVERT JUMPDEST PUSH1 0x0 DUP2 ISZERO ISZERO SWAP1 POP SWAP2 SWAP1 POP JUMP JUMPDEST PUSH2 0xE71 DUP2 PUSH2 0xE5C JUMP JUMPDEST DUP2 EQ PUSH2 0xE7C JUMPI PUSH1 0x0 DUP1 REVERT JUMPDEST POP JUMP JUMPDEST PUSH1 0x0 DUP2 CALLDATALOAD SWAP1 POP PUSH2 0xE8E DUP2 PUSH2 0xE68 JUMP JUMPDEST SWAP3 SWAP2 POP POP JUMP JUMPDEST PUSH1 0x0 PUSH1 0x20 DUP3 DUP5 SUB SLT ISZERO PUSH2 0xEAA JUMPI PUSH2 0xEA9 PUSH2 0xE57 JUMP JUMPDEST JUMPDEST PUSH1 0x0 PUSH2 0xEB8 DUP5 DUP3 DUP6 ADD PUSH2 0xE7F JUMP JUMPDEST SWAP2 POP POP SWAP3 SWAP2 POP POP JUMP JUMPDEST PUSH1 0x0 DUP2 SWAP1 POP SWAP2 SWAP1 POP JUMP JUMPDEST PUSH2 0xED4 DUP2 PUSH2 0xEC1 JUMP JUMPDEST DUP3 MSTORE POP POP JUMP JUMPDEST PUSH1 0x0 PUSH1 0x20 DUP3 ADD SWAP1 POP PUSH2 0xEEF PUSH1 0x0 DUP4 ADD DUP5 PUSH2 0xECB JUMP JUMPDEST SWAP3 SWAP2 POP POP JUMP JUMPDEST PUSH1 0x0 DUP3 DUP3 MSTORE PUSH1 0x20 DUP3 ADD SWAP1 POP SWAP3 SWAP2 POP POP JUMP JUMPDEST PUSH32 0x5245454E5452414E435900000000000000000000000000000000000000000000 PUSH1 0x0 DUP3 ADD MSTORE POP JUMP JUMPDEST PUSH1 0x0 PUSH2 0xF3C PUSH1 0xA DUP4 PUSH2 0xEF5 JUMP JUMPDEST SWAP2 POP PUSH2 0xF47 DUP3 PUSH2 0xF06 JUMP JUMPDEST PUSH1 0x20 DUP3 ADD SWAP1 POP SWAP2 SWAP1 POP JUMP JUMPDEST PUSH1 0x0 PUSH1 0x20 DUP3 ADD SWAP1 POP DUP2 DUP2 SUB PUSH1 0x0 DUP4 ADD MSTORE PUSH2 0xF6B DUP2 PUSH2 0xF2F JUMP JUMPDEST SWAP1 POP SWAP2 SWAP1 POP JUMP JUMPDEST PUSH1 0x0 DUP2 SWAP1 POP SWAP3 SWAP2 POP POP JUMP JUMPDEST POP JUMP JUMPDEST PUSH1 0x0 PUSH2 0xF8D PUSH1 0x0 DUP4 PUSH2 0xF72 JUMP JUMPDEST SWAP2 POP PUSH2 0xF98 DUP3 PUSH2 0xF7D JUMP JUMPDEST PUSH1 0x0 DUP3 ADD SWAP1 POP SWAP2 SWAP1 POP JUMP JUMPDEST PUSH1 0x0 PUSH2 0xFAE DUP3 PUSH2 0xF80 JUMP JUMPDEST SWAP2 POP DUP2 SWAP1 POP SWAP2 SWAP1 POP JUMP JUMPDEST PUSH2 0xFC1 DUP2 PUSH2 0xE5C JUMP JUMPDEST DUP3 MSTORE POP POP JUMP JUMPDEST PUSH1 0x0 PUSH1 0x20 DUP3 ADD SWAP1 POP PUSH2 0xFDC PUSH1 0x0 DUP4 ADD DUP5 PUSH2 0xFB8 JUMP JUMPDEST SWAP3 SWAP2 POP POP JUMP INVALID LOG2 PUSH5 0x6970667358 0x22 SLT KECCAK256 0x22 SWAP5 PUSH31 0x969C0B77DFFF0FE27CA73BB3CA8CC79443D1D4AC92203535F8C440388E6473 PUSH16 0x6C634300081C00330000000000000000 "},"methodIdentifiers":{"amount()":"aa8c217c","arbiter()":"fe25e00a","buyer()":"7150d8ae","confirmDelivery()":"5e10177b","deposit()":"d0e30db0","getStatus()":"4e69d560","raiseDispute()":"6daa2d44","releaseFunds()":"69d89575","resolveDispute(bool)":"89e1e82a","seller()":"08551a53","status()":"200d2ed2"}}}}}