{
  "_format": "hh-sol-artifact-1",
  "contractName": "Escrow",
  "sourceName": "Contracts/Escrow.sol",
  "abi": [
    {
      "inputs": [
        {
          "internalType": "address",
          "name": "_seller",
          "type": "address"
        },
        {
          "internalType": "address",
          "name": "_arbiter",
          "type": "address"
        }
      ],
      "stateMutability": "nonpayable",
      "type": "constructor"
    },
    {
      "inputs": [],
      "name": "AlreadyFunded",
      "type": "error"
    },
    {
      "inputs": [],
      "name": "InvalidState",
      "type": "error"
    },
    {
      "inputs": [],
      "name": "NotArbiter",
      "type": "error"
    },
    {
      "inputs": [],
      "name": "NotBuyer",
      "type": "error"
    },
    {
      "inputs": [],
      "name": "NotSeller",
      "type": "error"
    },
    {
      "inputs": [],
      "name": "TransferFailed",
      "type": "error"
    },
    {
      "inputs": [],
      "name": "ZeroAmount",
      "type": "error"
    },
    {
      "anonymous": false,
      "inputs": [
        {
          "indexed": true,
          "internalType": "address",
          "name": "seller",
          "type": "address"
        }
      ],
      "name": "Delivered",
      "type": "event"
    },
    {
      "anonymous": false,
      "inputs": [
        {
          "indexed": true,
          "internalType": "address",
          "name": "buyer",
          "type": "address"
        },
        {
          "indexed": false,
          "internalType": "uint256",
          "name": "amount",
          "type": "uint256"
        }
      ],
      "name": "Deposited",
      "type": "event"
    },
    {
      "anonymous": false,
      "inputs": [
        {
          "indexed": true,
          "internalType": "address",
          "name": "raisedBy",
          "type": "address"
        }
      ],
      "name": "Disputed",
      "type": "event"
    },
    {
      "anonymous": false,
      "inputs": [
        {
          "indexed": true,
          "internalType": "address",
          "name": "seller",
          "type": "address"
        },
        {
          "indexed": false,
          "internalType": "uint256",
          "name": "amount",
          "type": "uint256"
        }
      ],
      "name": "Released",
      "type": "event"
    },
    {
      "anonymous": false,
      "inputs": [
        {
          "indexed": true,
          "internalType": "address",
          "name": "arbiter",
          "type": "address"
        },
        {
          "indexed": false,
          "internalType": "bool",
          "name": "toSeller",
          "type": "bool"
        }
      ],
      "name": "Resolved",
      "type": "event"
    },
    {
      "inputs": [],
      "name": "amount",
      "outputs": [
        {
          "internalType": "uint256",
          "name": "",
          "type": "uint256"
        }
      ],
      "stateMutability": "view",
      "type": "function"
    },
    {
      "inputs": [],
      "name": "arbiter",
      "outputs": [
        {
          "internalType": "address",
          "name": "",
          "type": "address"
        }
      ],
      "stateMutability": "view",
      "type": "function"
    },
    {
      "inputs": [],
      "name": "buyer",
      "outputs": [
        {
          "internalType": "address",
          "name": "",
          "type": "address"
        }
      ],
      "stateMutability": "view",
      "type": "function"
    },
    {
      "inputs": [],
      "name": "confirmDelivery",
      "outputs": [],
      "stateMutability": "nonpayable",
      "type": "function"
    },
    {
      "inputs": [],
      "name": "deposit",
      "outputs": [],
      "stateMutability": "payable",
      "type": "function"
    },
    {
      "inputs": [],
      "name": "getStatus",
      "outputs": [
        {
          "internalType": "enum Escrow.Status",
          "name": "",
          "type": "uint8"
        }
      ],
      "stateMutability": "view",
      "type": "function"
    },
    {
      "inputs": [],
      "name": "raiseDispute",
      "outputs": [],
      "stateMutability": "nonpayable",
      "type": "function"
    },
    {
      "inputs": [],
      "name": "releaseFunds",
      "outputs": [],
      "stateMutability": "nonpayable",
      "type": "function"
    },
    {
      "inputs": [
        {
          "internalType": "bool",
          "name": "toSeller",
          "type": "bool"
        }
      ],
      "name": "resolveDispute",
      "outputs": [],
      "stateMutability": "nonpayable",
      "type": "function"
    },
    {
      "inputs": [],
      "name": "seller",
      "outputs": [
        {
          "internalType": "address",
          "name": "",
          "type": "address"
        }
      ],
      "stateMutability": "view",
      "type": "function"
    },
    {
      "inputs": [],
      "name": "status",
      "outputs": [
        {
          "internalType": "enum Escrow.Status",
          "name": "",
          "type": "uint8"
        }
      ],
      "stateMutability": "view",
      "type": "function"
    },
    {
      "stateMutability": "payable",
      "type": "receive"
    }
  ],
  "bytecode": "0x60e060405234801561001057600080fd5b506040516112d13803806112d1833981810160405281019061003291906101d5565b600073ffffffffffffffffffffffffffffffffffffffff168273ffffffffffffffffffffffffffffffffffffffff160361006b57600080fd5b600073ffffffffffffffffffffffffffffffffffffffff168173ffffffffffffffffffffffffffffffffffffffff16036100a457600080fd5b3373ffffffffffffffffffffffffffffffffffffffff1660808173ffffffffffffffffffffffffffffffffffffffff16815250508173ffffffffffffffffffffffffffffffffffffffff1660a08173ffffffffffffffffffffffffffffffffffffffff16815250508073ffffffffffffffffffffffffffffffffffffffff1660c08173ffffffffffffffffffffffffffffffffffffffff16815250506000600160006101000a81548160ff0219169083600481111561016657610165610215565b5b02179055505050610244565b600080fd5b600073ffffffffffffffffffffffffffffffffffffffff82169050919050565b60006101a282610177565b9050919050565b6101b281610197565b81146101bd57600080fd5b50565b6000815190506101cf816101a9565b92915050565b600080604083850312156101ec576101eb610172565b5b60006101fa858286016101c0565b925050602061020b858286016101c0565b9150509250929050565b7f4e487b7100000000000000000000000000000000000000000000000000000000600052602160045260246000fd5b60805160a05160c0516110186102b9600039600081816108a80152610d470152600081816102280152818161027601528181610562015281816106250152818161070a0152610a5b0152600081816103da015281816106b30152818161088401528181610a350152610b9801526110186000f3fe6080604052600436106100a05760003560e01c80636daa2d44116100645780636daa2d441461015b5780637150d8ae1461017257806389e1e82a1461019d578063aa8c217c146101c6578063d0e30db0146101f1578063fe25e00a146101fb576100a7565b806308551a53146100ac578063200d2ed2146100d75780634e69d560146101025780635e10177b1461012d57806369d8957514610144576100a7565b366100a757005b600080fd5b3480156100b857600080fd5b506100c1610226565b6040516100ce9190610daa565b60405180910390f35b3480156100e357600080fd5b506100ec61024a565b6040516100f99190610e3c565b60405180910390f35b34801561010e57600080fd5b5061011761025d565b6040516101249190610e3c565b60405180910390f35b34801561013957600080fd5b50610142610274565b005b34801561015057600080fd5b506101596103d8565b005b34801561016757600080fd5b506101706106b1565b005b34801561017e57600080fd5b50610187610882565b6040516101949190610daa565b60405180910390f35b3480156101a957600080fd5b506101c460048036038101906101bf9190610e94565b6108a6565b005b3480156101d257600080fd5b506101db610b90565b6040516101e89190610eda565b60405180910390f35b6101f9610b96565b005b34801561020757600080fd5b50610210610d45565b60405161021d9190610daa565b60405180910390f35b7f000000000000000000000000000000000000000000000000000000000000000081565b600160009054906101000a900460ff1681565b6000600160009054906101000a900460ff16905090565b7f000000000000000000000000000000000000000000000000000000000000000073ffffffffffffffffffffffffffffffffffffffff163373ffffffffffffffffffffffffffffffffffffffff16146102f9576040517f5ec8235100000000000000000000000000000000000000000000000000000000815260040160405180910390fd5b600180600481111561030e5761030d610dc5565b5b600160009054906101000a900460ff1660048111156103305761032f610dc5565b5b14610367576040517fbaf3f0f700000000000000000000000000000000000000000000000000000000815260040160405180910390fd5b6002600160006101000a81548160ff0219169083600481111561038d5761038c610dc5565b5b02179055503373ffffffffffffffffffffffffffffffffffffffff167ffedf826d9b4a1fe2a221dc900337fc72788ddb41c7ae6600c110ca2858365da460405160405180910390a250565b7f000000000000000000000000000000000000000000000000000000000000000073ffffffffffffffffffffffffffffffffffffffff163373ffffffffffffffffffffffffffffffffffffffff161461045d576040517f472e017e00000000000000000000000000000000000000000000000000000000815260040160405180910390fd5b600280600481111561047257610471610dc5565b5b600160009054906101000a900460ff16600481111561049457610493610dc5565b5b146104cb576040517fbaf3f0f700000000000000000000000000000000000000000000000000000000815260040160405180910390fd5b60018054906101000a900460ff1615610519576040517f08c379a000000000000000000000000000000000000000000000000000000000815260040161051090610f52565b60405180910390fd5b60018060016101000a81548160ff0219169083151502179055506004600160006101000a81548160ff0219169083600481111561055957610558610dc5565b5b021790555060007f000000000000000000000000000000000000000000000000000000000000000073ffffffffffffffffffffffffffffffffffffffff166000546040516105a690610fa3565b60006040518083038185875af1925050503d80600081146105e3576040519150601f19603f3d011682016040523d82523d6000602084013e6105e8565b606091505b5050905080610623576040517f90b8ec1800000000000000000000000000000000000000000000000000000000815260040160405180910390fd5b7f000000000000000000000000000000000000000000000000000000000000000073ffffffffffffffffffffffffffffffffffffffff167fb21fb52d5749b80f3182f8c6992236b5e5576681880914484d7f4c9b062e619e60005460405161068b9190610eda565b60405180910390a25060006001806101000a81548160ff02191690831515021790555050565b7f000000000000000000000000000000000000000000000000000000000000000073ffffffffffffffffffffffffffffffffffffffff163373ffffffffffffffffffffffffffffffffffffffff161415801561075957507f000000000000000000000000000000000000000000000000000000000000000073ffffffffffffffffffffffffffffffffffffffff163373ffffffffffffffffffffffffffffffffffffffff1614155b1561076357600080fd5b6001600481111561077757610776610dc5565b5b600160009054906101000a900460ff16600481111561079957610798610dc5565b5b141580156107db5750600260048111156107b6576107b5610dc5565b5b600160009054906101000a900460ff1660048111156107d8576107d7610dc5565b5b14155b15610812576040517fbaf3f0f700000000000000000000000000000000000000000000000000000000815260040160405180910390fd5b6003600160006101000a81548160ff0219169083600481111561083857610837610dc5565b5b02179055503373ffffffffffffffffffffffffffffffffffffffff167f695fbf2fe28b4fde5705122279ffc4160ebfc0f45e4d96f7e6699001be5062ef60405160405180910390a2565b7f000000000000000000000000000000000000000000000000000000000000000081565b7f000000000000000000000000000000000000000000000000000000000000000073ffffffffffffffffffffffffffffffffffffffff163373ffffffffffffffffffffffffffffffffffffffff161461092b576040517fccb665a600000000000000000000000000000000000000000000000000000000815260040160405180910390fd5b60038060048111156109405761093f610dc5565b5b600160009054906101000a900460ff16600481111561096257610961610dc5565b5b14610999576040517fbaf3f0f700000000000000000000000000000000000000000000000000000000815260040160405180910390fd5b60018054906101000a900460ff16156109e7576040517f08c379a00000000000000000000000000000000000000000000000000000000081526004016109de90610f52565b60405180910390fd5b60018060016101000a81548160ff0219169083151502179055506004600160006101000a81548160ff02191690836004811115610a2757610a26610dc5565b5b0217905550600082610a59577f0000000000000000000000000000000000000000000000000000000000000000610a7b565b7f00000000000000000000000000000000000000000000000000000000000000005b905060008173ffffffffffffffffffffffffffffffffffffffff16600054604051610aa590610fa3565b60006040518083038185875af1925050503d8060008114610ae2576040519150601f19603f3d011682016040523d82523d6000602084013e610ae7565b606091505b5050905080610b22576040517f90b8ec1800000000000000000000000000000000000000000000000000000000815260040160405180910390fd5b3373ffffffffffffffffffffffffffffffffffffffff167fc5767b31234c04312d2a3b199c34fe17682935203f9690186b7a73c329ae250285604051610b689190610fc7565b60405180910390a2505060006001806101000a81548160ff0219169083151502179055505050565b60005481565b7f000000000000000000000000000000000000000000000000000000000000000073ffffffffffffffffffffffffffffffffffffffff163373ffffffffffffffffffffffffffffffffffffffff1614610c1b576040517f472e017e00000000000000000000000000000000000000000000000000000000815260040160405180910390fd5b6000806004811115610c3057610c2f610dc5565b5b600160009054906101000a900460ff166004811115610c5257610c51610dc5565b5b14610c89576040517fbaf3f0f700000000000000000000000000000000000000000000000000000000815260040160405180910390fd5b60003403610cc3576040517f1f2a200500000000000000000000000000000000000000000000000000000000815260040160405180910390fd5b3460008190555060018060006101000a81548160ff02191690836004811115610cef57610cee610dc5565b5b02179055503373ffffffffffffffffffffffffffffffffffffffff167f2da466a7b24304f47e87fa2e1e5a81b9831ce54fec19055ce277ca2f39ba42c434604051610d3a9190610eda565b60405180910390a250565b7f000000000000000000000000000000000000000000000000000000000000000081565b600073ffffffffffffffffffffffffffffffffffffffff82169050919050565b6000610d9482610d69565b9050919050565b610da481610d89565b82525050565b6000602082019050610dbf6000830184610d9b565b92915050565b7f4e487b7100000000000000000000000000000000000000000000000000000000600052602160045260246000fd5b60058110610e0557610e04610dc5565b5b50565b6000819050610e1682610df4565b919050565b6000610e2682610e08565b9050919050565b610e3681610e1b565b82525050565b6000602082019050610e516000830184610e2d565b92915050565b600080fd5b60008115159050919050565b610e7181610e5c565b8114610e7c57600080fd5b50565b600081359050610e8e81610e68565b92915050565b600060208284031215610eaa57610ea9610e57565b5b6000610eb884828501610e7f565b91505092915050565b6000819050919050565b610ed481610ec1565b82525050565b6000602082019050610eef6000830184610ecb565b92915050565b600082825260208201905092915050565b7f5245454e5452414e435900000000000000000000000000000000000000000000600082015250565b6000610f3c600a83610ef5565b9150610f4782610f06565b602082019050919050565b60006020820190508181036000830152610f6b81610f2f565b9050919050565b600081905092915050565b50565b6000610f8d600083610f72565b9150610f9882610f7d565b600082019050919050565b6000610fae82610f80565b9150819050919050565b610fc181610e5c565b82525050565b6000602082019050610fdc6000830184610fb8565b9291505056fea264697066735822122022947e969c0b77dfff0fe27ca73bb3ca8cc79443d1d4ac92203535f8c440388e64736f6c634300081c0033",
  "linkReferences": {},
  "deployedLinkReferences": {}
}